{
  "_format": "hh-sol-artifact-1",
  "contractName": "BountyFactory",
  "sourceName": "contracts/BountyFactory.sol",
  "abi": [
    {
      "inputs": [
        {
          "internalType": "address payable",
          "name": "_supervisor",
          "type": "address"
        }
      ],
      "stateMutability": "nonpayable",
      "type": "constructor"
    },
    {
      "anonymous": false,
      "inputs": [
        {
          "indexed": false,
          "internalType": "address",
          "name": "bountyAddress",
          "type": "address"
        }
      ],
      "name": "BountyCreated",
      "type": "event"
    },
    {
      "inputs": [
        {
          "internalType": "string",
          "name": "",
          "type": "string"
        }
      ],
      "name": "allBounties",
      "outputs": [
        {
          "internalType": "address",
          "name": "",
          "type": "address"
        }
      ],
      "stateMutability": "view",
      "type": "function"
    },
    {
      "inputs": [
        {
          "internalType": "uint256",
          "name": "_expiryTimestamp",
          "type": "uint256"
        },
        {
          "internalType": "string",
          "name": "_bountyId",
          "type": "string"
        }
      ],
      "name": "createBounty",
      "outputs": [
        {
          "internalType": "address",
          "name": "",
          "type": "address"
        }
      ],
      "stateMutability": "payable",
      "type": "function"
    }
  ],
  "bytecode": "0x608060405234801561001057600080fd5b506040516117403803806117408339818101604052810190610032919061008d565b806000806101000a81548173ffffffffffffffffffffffffffffffffffffffff021916908373ffffffffffffffffffffffffffffffffffffffff160217905550506100ff565b600081519050610087816100e8565b92915050565b60006020828403121561009f57600080fd5b60006100ad84828501610078565b91505092915050565b60006100c1826100c8565b9050919050565b600073ffffffffffffffffffffffffffffffffffffffff82169050919050565b6100f1816100b6565b81146100fc57600080fd5b50565b6116328061010e6000396000f3fe6080604052600436106200002c5760003560e01c80633a6f38b21462000031578063c051a74c1462000067575b600080fd5b6200004f6004803603810190620000499190620004da565b620000ab565b6040516200005e9190620006ab565b60405180910390f35b3480156200007457600080fd5b506200009360048036038101906200008d919062000495565b620003b5565b604051620000a29190620006ab565b60405180910390f35b6000662386f26fc10000341015620000fa576040517f08c379a0000000000000000000000000000000000000000000000000000000008152600401620000f1906200071c565b60405180910390fd5b600033905060006611c37937e080009050600081346200011b919062000813565b905060008060009054906101000a900473ffffffffffffffffffffffffffffffffffffffff168488886040516200015290620003fe565b620001619493929190620006c8565b604051809103906000f0801580156200017e573d6000803e3d6000fd5b5090506000819050806001886040516200019991906200067b565b908152602001604051809103902060006101000a81548173ffffffffffffffffffffffffffffffffffffffff021916908373ffffffffffffffffffffffffffffffffffffffff16021790555060008060009054906101000a900473ffffffffffffffffffffffffffffffffffffffff1673ffffffffffffffffffffffffffffffffffffffff16856040516200022e9062000694565b60006040518083038185875af1925050503d80600081146200026d576040519150601f19603f3d011682016040523d82523d6000602084013e62000272565b606091505b5050905080620002b9576040517f08c379a0000000000000000000000000000000000000000000000000000000008152600401620002b09062000760565b60405180910390fd5b60008273ffffffffffffffffffffffffffffffffffffffff1685604051620002e19062000694565b60006040518083038185875af1925050503d806000811462000320576040519150601f19603f3d011682016040523d82523d6000602084013e62000325565b606091505b50509050806200036c576040517f08c379a000000000000000000000000000000000000000000000000000000000815260040162000363906200073e565b60405180910390fd5b7f296fd2c434595e170589ead76f71af701ab651dd12e03e8c108123ec7c809a73836040516200039d9190620006ab565b60405180910390a18297505050505050505092915050565b6001818051602081018201805184825260208301602085012081835280955050505050506000915054906101000a900473ffffffffffffffffffffffffffffffffffffffff1681565b610b8e8062000a6f83390190565b6000620004236200041d84620007ab565b62000782565b9050828152602081018484840111156200043c57600080fd5b62000449848285620008a0565b509392505050565b600082601f8301126200046357600080fd5b8135620004758482602086016200040c565b91505092915050565b6000813590506200048f8162000a54565b92915050565b600060208284031215620004a857600080fd5b600082013567ffffffffffffffff811115620004c357600080fd5b620004d18482850162000451565b91505092915050565b60008060408385031215620004ee57600080fd5b6000620004fe858286016200047e565b925050602083013567ffffffffffffffff8111156200051c57600080fd5b6200052a8582860162000451565b9150509250929050565b6200053f8162000862565b82525050565b62000550816200084e565b82525050565b60006200056382620007e1565b6200056f8185620007f7565b935062000581818560208601620008af565b6200058c8162000979565b840191505092915050565b6000620005a482620007e1565b620005b0818562000808565b9350620005c2818560208601620008af565b80840191505092915050565b6000620005dd602583620007f7565b9150620005ea826200098a565b604082019050919050565b600062000604601e83620007f7565b91506200061182620009d9565b602082019050919050565b60006200062b600083620007ec565b9150620006388262000a02565b600082019050919050565b600062000652602d83620007f7565b91506200065f8262000a05565b604082019050919050565b620006758162000896565b82525050565b600062000689828462000597565b915081905092915050565b6000620006a1826200061c565b9150819050919050565b6000602082019050620006c2600083018462000545565b92915050565b6000608082019050620006df600083018762000534565b620006ee602083018662000534565b620006fd60408301856200066a565b818103606083015262000711818462000556565b905095945050505050565b600060208201905081810360008301526200073781620005ce565b9050919050565b600060208201905081810360008301526200075981620005f5565b9050919050565b600060208201905081810360008301526200077b8162000643565b9050919050565b60006200078e620007a1565b90506200079c8282620008e5565b919050565b6000604051905090565b600067ffffffffffffffff821115620007c957620007c86200094a565b5b620007d48262000979565b9050602081019050919050565b600081519050919050565b600081905092915050565b600082825260208201905092915050565b600081905092915050565b6000620008208262000896565b91506200082d8362000896565b9250828210156200084357620008426200091b565b5b828203905092915050565b60006200085b8262000876565b9050919050565b60006200086f8262000876565b9050919050565b600073ffffffffffffffffffffffffffffffffffffffff82169050919050565b6000819050919050565b82818337600083830152505050565b60005b83811015620008cf578082015181840152602081019050620008b2565b83811115620008df576000848401525b50505050565b620008f08262000979565b810181811067ffffffffffffffff821117156200091257620009116200094a565b5b80604052505050565b7f4e487b7100000000000000000000000000000000000000000000000000000000600052601160045260246000fd5b7f4e487b7100000000000000000000000000000000000000000000000000000000600052604160045260246000fd5b6000601f19601f8301169050919050565b7f546865206d696e696d756d20626f756e74792076616c756520697320302e303160008201527f204554482e000000000000000000000000000000000000000000000000000000602082015250565b7f4661696c656420746f206465706f73697420626f756e74792076616c75650000600082015250565b50565b7f4661696c656420746f207472616e7366657220626f756e74792072657761726460008201527f20746f20726563697069656e7400000000000000000000000000000000000000602082015250565b62000a5f8162000896565b811462000a6b57600080fd5b5056fe60806040523480156200001157600080fd5b5060405162000b8e38038062000b8e833981810160405281019062000037919062000274565b33600460006101000a81548173ffffffffffffffffffffffffffffffffffffffff021916908373ffffffffffffffffffffffffffffffffffffffff16021790555082600360006101000a81548173ffffffffffffffffffffffffffffffffffffffff021916908373ffffffffffffffffffffffffffffffffffffffff16021790555083600260006101000a81548173ffffffffffffffffffffffffffffffffffffffff021916908373ffffffffffffffffffffffffffffffffffffffff1602179055508160008190555080600190805190602001906200011992919062000124565b5050505050620004db565b8280546200013290620003cc565b90600052602060002090601f016020900481019282620001565760008555620001a2565b82601f106200017157805160ff1916838001178555620001a2565b82800160010185558215620001a2579182015b82811115620001a157825182559160200191906001019062000184565b5b509050620001b19190620001b5565b5090565b5b80821115620001d0576000816000905550600101620001b6565b5090565b6000620001eb620001e58462000322565b620002f9565b9050828152602081018484840111156200020457600080fd5b6200021184828562000396565b509392505050565b6000815190506200022a81620004a7565b92915050565b600082601f8301126200024257600080fd5b815162000254848260208601620001d4565b91505092915050565b6000815190506200026e81620004c1565b92915050565b600080600080608085870312156200028b57600080fd5b60006200029b8782880162000219565b9450506020620002ae8782880162000219565b9350506040620002c1878288016200025d565b925050606085015167ffffffffffffffff811115620002df57600080fd5b620002ed8782880162000230565b91505092959194509250565b60006200030562000318565b905062000313828262000402565b919050565b6000604051905090565b600067ffffffffffffffff82111562000340576200033f62000467565b5b6200034b8262000496565b9050602081019050919050565b600062000365826200036c565b9050919050565b600073ffffffffffffffffffffffffffffffffffffffff82169050919050565b6000819050919050565b60005b83811015620003b657808201518184015260208101905062000399565b83811115620003c6576000848401525b50505050565b60006002820490506001821680620003e557607f821691505b60208210811415620003fc57620003fb62000438565b5b50919050565b6200040d8262000496565b810181811067ffffffffffffffff821117156200042f576200042e62000467565b5b80604052505050565b7f4e487b7100000000000000000000000000000000000000000000000000000000600052602260045260246000fd5b7f4e487b7100000000000000000000000000000000000000000000000000000000600052604160045260246000fd5b6000601f19601f8301169050919050565b620004b28162000358565b8114620004be57600080fd5b50565b620004cc816200038c565b8114620004d857600080fd5b50565b6106a380620004eb6000396000f3fe60806040526004361061004e5760003560e01c80630594ec9a146100a55780630e1da6c3146100d05780636151fdb0146100e7578063ade6e2aa14610103578063c17bd75e1461012e576100a3565b366100a3573373ffffffffffffffffffffffffffffffffffffffff167f9936746a4565f9766fa768f88f56a7487c78780ac179562773d1c75c5269537e4760405161009991906104c6565b60405180910390a2005b005b3480156100b157600080fd5b506100ba610159565b6040516100c791906104c6565b60405180910390f35b3480156100dc57600080fd5b506100e5610161565b005b61010160048036038101906100fc91906103ad565b61020d565b005b34801561010f57600080fd5b50610118610304565b60405161012591906104c6565b60405180910390f35b34801561013a57600080fd5b5061014361030a565b6040516101509190610464565b60405180910390f35b600047905090565b6000544210156101a6576040517f08c379a000000000000000000000000000000000000000000000000000000000815260040161019d90610486565b60405180910390fd5b7f75960a4b43dd58f94378add25345b6a193ac8dbc3295822dad84213cb1c08b5160405160405180910390a1600360009054906101000a900473ffffffffffffffffffffffffffffffffffffffff1673ffffffffffffffffffffffffffffffffffffffff16ff5b600260009054906101000a900473ffffffffffffffffffffffffffffffffffffffff1673ffffffffffffffffffffffffffffffffffffffff163373ffffffffffffffffffffffffffffffffffffffff161461029d576040517f08c379a0000000000000000000000000000000000000000000000000000000008152600401610294906104a6565b60405180910390fd5b8073ffffffffffffffffffffffffffffffffffffffff167fc4f6aa56c2c45f706ff58d9582f241d2ed8302b3ece6eb8104e55e86cd36b10e476040516102e391906104c6565b60405180910390a28073ffffffffffffffffffffffffffffffffffffffff16ff5b60005481565b600180546103179061056c565b80601f01602080910402602001604051908101604052809291908181526020018280546103439061056c565b80156103905780601f1061036557610100808354040283529160200191610390565b820191906000526020600020905b81548152906001019060200180831161037357829003601f168201915b505050505081565b6000813590506103a781610656565b92915050565b6000602082840312156103bf57600080fd5b60006103cd84828501610398565b91505092915050565b60006103e1826104e1565b6103eb81856104ec565b93506103fb818560208601610539565b610404816105cd565b840191505092915050565b600061041c6022836104ec565b9150610427826105de565b604082019050919050565b600061043f6016836104ec565b915061044a8261062d565b602082019050919050565b61045e8161052f565b82525050565b6000602082019050818103600083015261047e81846103d6565b905092915050565b6000602082019050818103600083015261049f8161040f565b9050919050565b600060208201905081810360008301526104bf81610432565b9050919050565b60006020820190506104db6000830184610455565b92915050565b600081519050919050565b600082825260208201905092915050565b60006105088261050f565b9050919050565b600073ffffffffffffffffffffffffffffffffffffffff82169050919050565b6000819050919050565b60005b8381101561055757808201518184015260208101905061053c565b83811115610566576000848401525b50505050565b6000600282049050600182168061058457607f821691505b602082108114156105985761059761059e565b5b50919050565b7f4e487b7100000000000000000000000000000000000000000000000000000000600052602260045260246000fd5b6000601f19601f8301169050919050565b7f5468697320636f6e747261637420686173206e6f74206578706972656420796560008201527f742e000000000000000000000000000000000000000000000000000000000000602082015250565b7f53656e646572206e6f7420617574686f72697a65642e00000000000000000000600082015250565b61065f816104fd565b811461066a57600080fd5b5056fea26469706673582212205b9372787d749ec05b1aa384d8902887a66981a375f5b483608cf6e4253e9cd864736f6c63430008040033a264697066735822122059a8aa6b634d3dcada0965ca003b4b699580ed65484112fb49f3fba602893a8764736f6c63430008040033",
  "linkReferences": {},
  "deployedLinkReferences": {}
}