{
  "_format": "hh-sol-artifact-1",
  "contractName": "BountyFactory",
  "sourceName": "contracts/BountyFactory.sol",
  "abi": [
    {
      "inputs": [
        {
          "internalType": "address payable",
          "name": "_supervisor",
          "type": "address"
        }
      ],
      "stateMutability": "nonpayable",
      "type": "constructor"
    },
    {
      "anonymous": false,
      "inputs": [
        {
          "indexed": false,
          "internalType": "contract Bounty",
          "name": "bounty",
          "type": "address"
        }
      ],
      "name": "BountyCreated",
      "type": "event"
    },
    {
      "inputs": [
        {
          "internalType": "address",
          "name": "",
          "type": "address"
        }
      ],
      "name": "allBounties",
      "outputs": [
        {
          "internalType": "contract Bounty",
          "name": "",
          "type": "address"
        }
      ],
      "stateMutability": "view",
      "type": "function"
    },
    {
      "inputs": [
        {
          "internalType": "uint256",
          "name": "_expiryTimestamp",
          "type": "uint256"
        }
      ],
      "name": "createBounty",
      "outputs": [
        {
          "internalType": "address",
          "name": "",
          "type": "address"
        }
      ],
      "stateMutability": "payable",
      "type": "function"
    },
    {
      "inputs": [],
      "name": "getTotalBounties",
      "outputs": [
        {
          "internalType": "uint256",
          "name": "",
          "type": "uint256"
        }
      ],
      "stateMutability": "pure",
      "type": "function"
    }
  ],
  "bytecode": "0x608060405234801561001057600080fd5b50604051610ddb380380610ddb8339818101604052810190610032919061008d565b806000806101000a81548173ffffffffffffffffffffffffffffffffffffffff021916908373ffffffffffffffffffffffffffffffffffffffff160217905550506100ff565b600081519050610087816100e8565b92915050565b60006020828403121561009f57600080fd5b60006100ad84828501610078565b91505092915050565b60006100c1826100c8565b9050919050565b600073ffffffffffffffffffffffffffffffffffffffff82169050919050565b6100f1816100b6565b81146100fc57600080fd5b50565b610ccd8061010e6000396000f3fe6080604052600436106100345760003560e01c80630c12d5a4146100395780633f28e9fb146100645780636cc5742a14610094575b600080fd5b34801561004557600080fd5b5061004e6100d1565b60405161005b919061048b565b60405180910390f35b61007e6004803603810190610079919061033e565b6100d6565b60405161008b91906103fe565b60405180910390f35b3480156100a057600080fd5b506100bb60048036038101906100b69190610315565b6102ab565b6040516100c89190610450565b60405180910390f35b600090565b60008033905060008060009054906101000a900473ffffffffffffffffffffffffffffffffffffffff16828560405161010e906102de565b61011a93929190610419565b604051809103906000f080158015610136573d6000803e3d6000fd5b509050600081905081600160008373ffffffffffffffffffffffffffffffffffffffff1673ffffffffffffffffffffffffffffffffffffffff16815260200190815260200160002060006101000a81548173ffffffffffffffffffffffffffffffffffffffff021916908373ffffffffffffffffffffffffffffffffffffffff16021790555060008173ffffffffffffffffffffffffffffffffffffffff16346040516101e2906103e9565b60006040518083038185875af1925050503d806000811461021f576040519150601f19603f3d011682016040523d82523d6000602084013e610224565b606091505b5050905080610268576040517f08c379a000000000000000000000000000000000000000000000000000000000815260040161025f9061046b565b60405180910390fd5b7f296fd2c434595e170589ead76f71af701ab651dd12e03e8c108123ec7c809a73836040516102979190610450565b60405180910390a181945050505050919050565b60016020528060005260406000206000915054906101000a900473ffffffffffffffffffffffffffffffffffffffff1681565b6107098061058f83390190565b6000813590506102fa81610560565b92915050565b60008135905061030f81610577565b92915050565b60006020828403121561032757600080fd5b6000610335848285016102eb565b91505092915050565b60006020828403121561035057600080fd5b600061035e84828501610300565b91505092915050565b610370816104d4565b82525050565b61037f816104c2565b82525050565b61038e81610510565b82525050565b60006103a1601e836104b1565b91506103ac82610534565b602082019050919050565b60006103c46000836104a6565b91506103cf8261055d565b600082019050919050565b6103e381610506565b82525050565b60006103f4826103b7565b9150819050919050565b60006020820190506104136000830184610376565b92915050565b600060608201905061042e6000830186610367565b61043b6020830185610367565b61044860408301846103da565b949350505050565b60006020820190506104656000830184610385565b92915050565b6000602082019050818103600083015261048481610394565b9050919050565b60006020820190506104a060008301846103da565b92915050565b600081905092915050565b600082825260208201905092915050565b60006104cd826104e6565b9050919050565b60006104df826104e6565b9050919050565b600073ffffffffffffffffffffffffffffffffffffffff82169050919050565b6000819050919050565b600061051b82610522565b9050919050565b600061052d826104e6565b9050919050565b7f4661696c656420746f206465706f73697420626f756e74792076616c75650000600082015250565b50565b610569816104c2565b811461057457600080fd5b50565b61058081610506565b811461058b57600080fd5b5056fe608060405234801561001057600080fd5b506040516107093803806107098339818101604052810190610032919061012e565b33600360006101000a81548173ffffffffffffffffffffffffffffffffffffffff021916908373ffffffffffffffffffffffffffffffffffffffff16021790555081600260006101000a81548173ffffffffffffffffffffffffffffffffffffffff021916908373ffffffffffffffffffffffffffffffffffffffff16021790555082600160006101000a81548173ffffffffffffffffffffffffffffffffffffffff021916908373ffffffffffffffffffffffffffffffffffffffff160217905550806000819055505050506101e7565b600081519050610113816101b9565b92915050565b600081519050610128816101d0565b92915050565b60008060006060848603121561014357600080fd5b600061015186828701610104565b935050602061016286828701610104565b925050604061017386828701610119565b9150509250925092565b60006101888261018f565b9050919050565b600073ffffffffffffffffffffffffffffffffffffffff82169050919050565b6000819050919050565b6101c28161017d565b81146101cd57600080fd5b50565b6101d9816101af565b81146101e457600080fd5b50565b610513806101f66000396000f3fe60806040526004361061004e5760003560e01c80630594ec9a146100a55780630e1da6c3146100d05780632d8ed84a146100e75780636151fdb014610112578063ade6e2aa1461012e576100a3565b366100a3573373ffffffffffffffffffffffffffffffffffffffff167f9936746a4565f9766fa768f88f56a7487c78780ac179562773d1c75c5269537e4760405161009991906103e6565b60405180910390a2005b005b3480156100b157600080fd5b506100ba610159565b6040516100c791906103e6565b60405180910390f35b3480156100dc57600080fd5b506100e5610161565b005b3480156100f357600080fd5b506100fc61020d565b60405161010991906103e6565b60405180910390f35b61012c60048036038101906101279190610328565b610216565b005b34801561013a57600080fd5b5061014361030d565b60405161015091906103e6565b60405180910390f35b600047905090565b6000544210156101a6576040517f08c379a000000000000000000000000000000000000000000000000000000000815260040161019d906103a6565b60405180910390fd5b7f75960a4b43dd58f94378add25345b6a193ac8dbc3295822dad84213cb1c08b5160405160405180910390a1600260009054906101000a900473ffffffffffffffffffffffffffffffffffffffff1673ffffffffffffffffffffffffffffffffffffffff16ff5b60008054905090565b600160009054906101000a900473ffffffffffffffffffffffffffffffffffffffff1673ffffffffffffffffffffffffffffffffffffffff163373ffffffffffffffffffffffffffffffffffffffff16146102a6576040517f08c379a000000000000000000000000000000000000000000000000000000000815260040161029d906103c6565b60405180910390fd5b8073ffffffffffffffffffffffffffffffffffffffff167fc4f6aa56c2c45f706ff58d9582f241d2ed8302b3ece6eb8104e55e86cd36b10e476040516102ec91906103e6565b60405180910390a28073ffffffffffffffffffffffffffffffffffffffff16ff5b60005481565b600081359050610322816104c6565b92915050565b60006020828403121561033a57600080fd5b600061034884828501610313565b91505092915050565b600061035e602283610401565b91506103698261044e565b604082019050919050565b6000610381601683610401565b915061038c8261049d565b602082019050919050565b6103a081610444565b82525050565b600060208201905081810360008301526103bf81610351565b9050919050565b600060208201905081810360008301526103df81610374565b9050919050565b60006020820190506103fb6000830184610397565b92915050565b600082825260208201905092915050565b600061041d82610424565b9050919050565b600073ffffffffffffffffffffffffffffffffffffffff82169050919050565b6000819050919050565b7f5468697320636f6e747261637420686173206e6f74206578706972656420796560008201527f742e000000000000000000000000000000000000000000000000000000000000602082015250565b7f53656e646572206e6f7420617574686f72697a65642e00000000000000000000600082015250565b6104cf81610412565b81146104da57600080fd5b5056fea26469706673582212201a377779135381455c1b657afce936de49080fb7319948a7999cd90299f99f8f64736f6c63430008040033a264697066735822122081514be6d325c29dfeef74417cae7e7b1bfca04c54a92f7cf56dfc895c99559c64736f6c63430008040033",
  "linkReferences": {},
  "deployedLinkReferences": {}
}