{
  "_format": "hh-sol-artifact-1",
  "contractName": "BountyFactory",
  "sourceName": "contracts/BountyFactory.sol",
  "abi": [
    {
      "inputs": [
        {
          "internalType": "address payable",
          "name": "_supervisor",
          "type": "address"
        }
      ],
      "stateMutability": "nonpayable",
      "type": "constructor"
    },
    {
      "anonymous": false,
      "inputs": [
        {
          "indexed": false,
          "internalType": "address",
          "name": "bountyAddress",
          "type": "address"
        }
      ],
      "name": "BountyCreated",
      "type": "event"
    },
    {
      "inputs": [
        {
          "internalType": "string",
          "name": "",
          "type": "string"
        }
      ],
      "name": "allBounties",
      "outputs": [
        {
          "internalType": "address",
          "name": "",
          "type": "address"
        }
      ],
      "stateMutability": "view",
      "type": "function"
    },
    {
      "inputs": [
        {
          "internalType": "uint256",
          "name": "_expiryTimestamp",
          "type": "uint256"
        },
        {
          "internalType": "string",
          "name": "_bountyId",
          "type": "string"
        }
      ],
      "name": "createBounty",
      "outputs": [
        {
          "internalType": "address",
          "name": "",
          "type": "address"
        }
      ],
      "stateMutability": "payable",
      "type": "function"
    }
  ],
  "bytecode": "0x608060405234801561001057600080fd5b506040516114a23803806114a28339818101604052810190610032919061008d565b806000806101000a81548173ffffffffffffffffffffffffffffffffffffffff021916908373ffffffffffffffffffffffffffffffffffffffff160217905550506100ff565b600081519050610087816100e8565b92915050565b60006020828403121561009f57600080fd5b60006100ad84828501610078565b91505092915050565b60006100c1826100c8565b9050919050565b600073ffffffffffffffffffffffffffffffffffffffff82169050919050565b6100f1816100b6565b81146100fc57600080fd5b50565b6113948061010e6000396000f3fe6080604052600436106200002c5760003560e01c80633a6f38b21462000031578063c051a74c1462000067575b600080fd5b6200004f600480360381019062000049919062000397565b620000ab565b6040516200005e91906200051a565b60405180910390f35b3480156200007457600080fd5b506200009360048036038101906200008d919062000352565b62000272565b604051620000a291906200051a565b60405180910390f35b60008033905060008060009054906101000a900473ffffffffffffffffffffffffffffffffffffffff16828686604051620000e690620002bb565b620000f5949392919062000537565b604051809103906000f08015801562000112573d6000803e3d6000fd5b5090506000819050806001866040516200012d9190620004ea565b908152602001604051809103902060006101000a81548173ffffffffffffffffffffffffffffffffffffffff021916908373ffffffffffffffffffffffffffffffffffffffff16021790555060008173ffffffffffffffffffffffffffffffffffffffff1634604051620001a19062000503565b60006040518083038185875af1925050503d8060008114620001e0576040519150601f19603f3d011682016040523d82523d6000602084013e620001e5565b606091505b50509050806200022c576040517f08c379a000000000000000000000000000000000000000000000000000000000815260040162000223906200058b565b60405180910390fd5b7f296fd2c434595e170589ead76f71af701ab651dd12e03e8c108123ec7c809a73826040516200025d91906200051a565b60405180910390a18194505050505092915050565b6001818051602081018201805184825260208301602085012081835280955050505050506000915054906101000a900473ffffffffffffffffffffffffffffffffffffffff1681565b610bcd806200079283390190565b6000620002e0620002da84620005d6565b620005ad565b905082815260208101848484011115620002f957600080fd5b6200030684828562000690565b509392505050565b600082601f8301126200032057600080fd5b813562000332848260208601620002c9565b91505092915050565b6000813590506200034c8162000777565b92915050565b6000602082840312156200036557600080fd5b600082013567ffffffffffffffff8111156200038057600080fd5b6200038e848285016200030e565b91505092915050565b60008060408385031215620003ab57600080fd5b6000620003bb858286016200033b565b925050602083013567ffffffffffffffff811115620003d957600080fd5b620003e7858286016200030e565b9150509250929050565b620003fc8162000652565b82525050565b6200040d816200063e565b82525050565b600062000420826200060c565b6200042c818562000622565b93506200043e8185602086016200069f565b62000449816200073a565b840191505092915050565b600062000461826200060c565b6200046d818562000633565b93506200047f8185602086016200069f565b80840191505092915050565b60006200049a601e8362000622565b9150620004a7826200074b565b602082019050919050565b6000620004c160008362000617565b9150620004ce8262000774565b600082019050919050565b620004e48162000686565b82525050565b6000620004f8828462000454565b915081905092915050565b60006200051082620004b2565b9150819050919050565b600060208201905062000531600083018462000402565b92915050565b60006080820190506200054e6000830187620003f1565b6200055d6020830186620003f1565b6200056c6040830185620004d9565b818103606083015262000580818462000413565b905095945050505050565b60006020820190508181036000830152620005a6816200048b565b9050919050565b6000620005b9620005cc565b9050620005c78282620006d5565b919050565b6000604051905090565b600067ffffffffffffffff821115620005f457620005f36200070b565b5b620005ff826200073a565b9050602081019050919050565b600081519050919050565b600081905092915050565b600082825260208201905092915050565b600081905092915050565b60006200064b8262000666565b9050919050565b60006200065f8262000666565b9050919050565b600073ffffffffffffffffffffffffffffffffffffffff82169050919050565b6000819050919050565b82818337600083830152505050565b60005b83811015620006bf578082015181840152602081019050620006a2565b83811115620006cf576000848401525b50505050565b620006e0826200073a565b810181811067ffffffffffffffff821117156200070257620007016200070b565b5b80604052505050565b7f4e487b7100000000000000000000000000000000000000000000000000000000600052604160045260246000fd5b6000601f19601f8301169050919050565b7f4661696c656420746f206465706f73697420626f756e74792076616c75650000600082015250565b50565b620007828162000686565b81146200078e57600080fd5b5056fe60806040523480156200001157600080fd5b5060405162000bcd38038062000bcd833981810160405281019062000037919062000274565b33600460006101000a81548173ffffffffffffffffffffffffffffffffffffffff021916908373ffffffffffffffffffffffffffffffffffffffff16021790555082600360006101000a81548173ffffffffffffffffffffffffffffffffffffffff021916908373ffffffffffffffffffffffffffffffffffffffff16021790555083600260006101000a81548173ffffffffffffffffffffffffffffffffffffffff021916908373ffffffffffffffffffffffffffffffffffffffff1602179055508160008190555080600190805190602001906200011992919062000124565b5050505050620004db565b8280546200013290620003cc565b90600052602060002090601f016020900481019282620001565760008555620001a2565b82601f106200017157805160ff1916838001178555620001a2565b82800160010185558215620001a2579182015b82811115620001a157825182559160200191906001019062000184565b5b509050620001b19190620001b5565b5090565b5b80821115620001d0576000816000905550600101620001b6565b5090565b6000620001eb620001e58462000322565b620002f9565b9050828152602081018484840111156200020457600080fd5b6200021184828562000396565b509392505050565b6000815190506200022a81620004a7565b92915050565b600082601f8301126200024257600080fd5b815162000254848260208601620001d4565b91505092915050565b6000815190506200026e81620004c1565b92915050565b600080600080608085870312156200028b57600080fd5b60006200029b8782880162000219565b9450506020620002ae8782880162000219565b9350506040620002c1878288016200025d565b925050606085015167ffffffffffffffff811115620002df57600080fd5b620002ed8782880162000230565b91505092959194509250565b60006200030562000318565b905062000313828262000402565b919050565b6000604051905090565b600067ffffffffffffffff82111562000340576200033f62000467565b5b6200034b8262000496565b9050602081019050919050565b600062000365826200036c565b9050919050565b600073ffffffffffffffffffffffffffffffffffffffff82169050919050565b6000819050919050565b60005b83811015620003b657808201518184015260208101905062000399565b83811115620003c6576000848401525b50505050565b60006002820490506001821680620003e557607f821691505b60208210811415620003fc57620003fb62000438565b5b50919050565b6200040d8262000496565b810181811067ffffffffffffffff821117156200042f576200042e62000467565b5b80604052505050565b7f4e487b7100000000000000000000000000000000000000000000000000000000600052602260045260246000fd5b7f4e487b7100000000000000000000000000000000000000000000000000000000600052604160045260246000fd5b6000601f19601f8301169050919050565b620004b28162000358565b8114620004be57600080fd5b50565b620004cc816200038c565b8114620004d857600080fd5b50565b6106e280620004eb6000396000f3fe6080604052600436106100595760003560e01c80630594ec9a146100b05780630e1da6c3146100db5780632d8ed84a146100f25780636151fdb01461011d578063ade6e2aa14610139578063c17bd75e14610164576100ae565b366100ae573373ffffffffffffffffffffffffffffffffffffffff167f9936746a4565f9766fa768f88f56a7487c78780ac179562773d1c75c5269537e476040516100a49190610505565b60405180910390a2005b005b3480156100bc57600080fd5b506100c561018f565b6040516100d29190610505565b60405180910390f35b3480156100e757600080fd5b506100f0610197565b005b3480156100fe57600080fd5b50610107610243565b6040516101149190610505565b60405180910390f35b610137600480360381019061013291906103ec565b61024c565b005b34801561014557600080fd5b5061014e610343565b60405161015b9190610505565b60405180910390f35b34801561017057600080fd5b50610179610349565b60405161018691906104a3565b60405180910390f35b600047905090565b6000544210156101dc576040517f08c379a00000000000000000000000000000000000000000000000000000000081526004016101d3906104c5565b60405180910390fd5b7f75960a4b43dd58f94378add25345b6a193ac8dbc3295822dad84213cb1c08b5160405160405180910390a1600360009054906101000a900473ffffffffffffffffffffffffffffffffffffffff1673ffffffffffffffffffffffffffffffffffffffff16ff5b60008054905090565b600260009054906101000a900473ffffffffffffffffffffffffffffffffffffffff1673ffffffffffffffffffffffffffffffffffffffff163373ffffffffffffffffffffffffffffffffffffffff16146102dc576040517f08c379a00000000000000000000000000000000000000000000000000000000081526004016102d3906104e5565b60405180910390fd5b8073ffffffffffffffffffffffffffffffffffffffff167fc4f6aa56c2c45f706ff58d9582f241d2ed8302b3ece6eb8104e55e86cd36b10e476040516103229190610505565b60405180910390a28073ffffffffffffffffffffffffffffffffffffffff16ff5b60005481565b60018054610356906105ab565b80601f0160208091040260200160405190810160405280929190818152602001828054610382906105ab565b80156103cf5780601f106103a4576101008083540402835291602001916103cf565b820191906000526020600020905b8154815290600101906020018083116103b257829003601f168201915b505050505081565b6000813590506103e681610695565b92915050565b6000602082840312156103fe57600080fd5b600061040c848285016103d7565b91505092915050565b600061042082610520565b61042a818561052b565b935061043a818560208601610578565b6104438161060c565b840191505092915050565b600061045b60228361052b565b91506104668261061d565b604082019050919050565b600061047e60168361052b565b91506104898261066c565b602082019050919050565b61049d8161056e565b82525050565b600060208201905081810360008301526104bd8184610415565b905092915050565b600060208201905081810360008301526104de8161044e565b9050919050565b600060208201905081810360008301526104fe81610471565b9050919050565b600060208201905061051a6000830184610494565b92915050565b600081519050919050565b600082825260208201905092915050565b60006105478261054e565b9050919050565b600073ffffffffffffffffffffffffffffffffffffffff82169050919050565b6000819050919050565b60005b8381101561059657808201518184015260208101905061057b565b838111156105a5576000848401525b50505050565b600060028204905060018216806105c357607f821691505b602082108114156105d7576105d66105dd565b5b50919050565b7f4e487b7100000000000000000000000000000000000000000000000000000000600052602260045260246000fd5b6000601f19601f8301169050919050565b7f5468697320636f6e747261637420686173206e6f74206578706972656420796560008201527f742e000000000000000000000000000000000000000000000000000000000000602082015250565b7f53656e646572206e6f7420617574686f72697a65642e00000000000000000000600082015250565b61069e8161053c565b81146106a957600080fd5b5056fea2646970667358221220fdc70ad334c548c92660932bfe9e71fb03e92f02c9b7b95af91dfbfe2c67b1e964736f6c63430008040033a264697066735822122050355a2b69f162646c68475c8b6b0b7a2eabc2e34903f0ff832d60194045423464736f6c63430008040033",
  "linkReferences": {},
  "deployedLinkReferences": {}
}